:10015300696E7465727275707400736F6E672031A7
:0801630000736F6E672032008B
:0300130002007573
:10007500C0E0C0F0C083C082C0D075D000C000C051
:1000850001C002C003C004C005C006C007C2A47BEE
:10009500FF7A0179537D097C00120026D007D0062E
:1000A500D005D004D003D002D001D000D0D0D0826A
:0700B500D083D0F0D0E0324F
:1000F900E4F50FF510F5A4F591F584D2AFD2A8D2A5
:10010900AA7BFF7A01795D7D06FC1200267BFF7AC6
:0C0119000179647D067C0012002680FE47
:0101250022B7
:0A0026008B118A1289138C148D15BA
:10003000E4F516F517D2AF1200BCE4F516F517C3B8
:10004000E5179515E5146480F8E516648098501D51
:10005000AB11AA12A913851782851683120126FFF8
:1000600012016B0517E51770D6051680D2E4FF1252
:04007000016BC2AFAF
:010074002269
:1000BC005387BF75985053877FE4F5BA43A240FD30
:1000CC007C0324F0FD74FF3CFCE4F5BD8CBFAF0554
:1000DC00EFF5BE75BD035391FE439201439102535C
:0C00EC0092FDC20053B8EF53B7EFD2AC46
:0100F80022E5
:03002300020003D5
:0D000300309802C298309904C299C20032B0
:08016B002000FDD2008F992253
:03001000AF992283
:03000000020016E5
:0C001600787FE4F6D8FD7581200200F927
:10012600BB010CE58229F582E5833AF583E022508E
:1001360006E92582F8E622BBFE06E92582F8E222D8
:0D014600E58229F582E5833AF583E49322F2
:00000001FF
