:100BC600696E7465727275707400736F6E6720312A
:080BD60000736F6E672032000E
:03001300020A9648
:100A9600C0E0C0F0C083C082C0D075D000C000C026
:100AA60001C002C003C004C005C006C0077BFF7AB0
:100AB6000B79C67D097C00120A47D007D006D005FF
:100AC600D004D003D002D001D000D0D0D082D083C1
:050AD600D0F0D0E03279
:100B9A00E4F50FF510F5A4F591F584D2AFD2A8D2F9
:100BAA00AA7BFF7A0B79D07D06FC120A477BFF7A73
:0C0BBA000B79D77D067C00120A4780FEF4
:0A0A47008B118A1289138C148D158F
:100A5100E4F516F517D2AF120B5EE4F516F517C3E0
:100A6100E5179515E5146480F8E516648098501D26
:100A7100AB11AA12A913851782851683120800FFEC
:100A8100120C030517E51770D6051680D2E4FF1284
:040A91000C03C2AFE1
:010A9500223E
:100B5E005387BF75985053877FE4F5BA43A2407C04
:100B6E000324F0FD74FF3CFCE4F5BD8CBFAF05EF34
:100B7E00F5BE75BD035391FE43920143910253920C
:0B0B8E00FDC20053B8EF53B7EFD2AC2C
:010B99002239
:03002300020BDEEF
:0D0BDE00309802C298309904C299C20032CA
:080C03002000FDD2008F9922B0
:030C0B00AF99227C
:0C0BEB0003E80C03E80C03E80C01010116
:1009F200EF14601F14603424027049751BFF751CCC
:100A02000B751DED900BF5E493F51E7BFF7A0B79C8
:100A1200EB802E751BFF751C0B751DF0900BF5E41A
:100A220093F51E7BFF7A0B79EE8016751BFF751C02
:100A32000B751DF3900BF6E493F51E7BFF7A0B7991
:050A4200F1120B1F2260
:060B1F008B188A19891AE7
:100B2500E4F51FE51FC3951E502EAB18AA19A91A87
:100B350075F002E51FA4F58285F083120894FFAED7
:100B4500F0AB1BAA1CA91D851F8275830012080026
:080B5500FD12099A051F80CB77
:010B5D002275
:04099A00AB07AA06F7
:10099E00AF057E00AD03AC0212082D7C007D121255
:1009AE00083F8E218F22E4F9F87FB57EAF7D04FCDF
:1009BE00120ADBAD07AC06AF04AE055389F04389CE
:1009CE0001E4FCFDC3ED9522EC952150168F8C8E23
:1009DE008AD28C308DFDC28CC28DB2970DBD0001B6
:0309EE000C80E199
:0109F10022E3
:03000000020BF7F9
:0C0BF700787FE4F6D8FD758122020B9A8D
:10080000BB010CE58229F582E5833AF583E02250AD
:1008100006E92582F8E622BBFE06E92582F8E222F7
:0D082000E58229F582E5833AF583E4932211
:10082D00EF8DF0A4A8F0CF8CF0A428CE8DF0A42EDF
:02083D00FE2299
:10083F00BC000BBE0029EF8DF084FFADF022E4CC9D
:10084F00F875F008EF2FFFEE33FEEC33FCEE9DEC66
:10085F00984005FCEE9DFE0FD5F0E9E4CEFD22EDAC
:10086F00F8F5F0EE8420D21CFEADF075F008EF2FF6
:10087F00FFED33FD4007985006D5F0F222C398FDE7
:05088F000FD5F0EA2284
:10089400BB0110E58229F582E5833AF583E0F5F0A2
:1008A400A3E0225009E92582F886F008E622BBFE7F
:1008B4000AE92582F8E2F5F008E222E5832AF583C5
:0808C400E993F5F0A3E993228A
:100ADB00C2D5E830E70FB2D5E4C39BFBE49AFAE446
:100AEB0099F9E498F8EC30E717B2D5120B1112090B
:100AFB0008E4C39BFBE49AFAE499F9E498F88003C1
:100B0B0012090830D50DE4C39FFFE49EFEE49DFD62
:040B1B00E49CFC2238
:1008CC0075F008758200EF2FFFEE33FECD33CDCCE3
:1008DC0033CCC58233C5829BED9AEC99E582984066
:1008EC000CF582EE9BFEED9AFDEC99FC0FD5F0D643
:1008FC00E4CEFBE4CDFAE4CCF9A88222B800C1B96D
:10090C000059BA002DEC8BF084CFCECDFCE5F0CBAA
:10091C00F97818EF2FFFEE33FEED33FDEC33FCEBE3
:10092C0033FB10D703994004EB99FB0FD8E5E4F99E
:10093C00FA227818EF2FFFEE33FEED33FDEC33FC8B
:10094C00C933C910D7059BE99A4007EC9BFCE99A7F
:10095C00F90FD8E0E4C9FAE4CCFB2275F010EF2FC4
:10096C00FFEE33FEED33FDCC33CCC833C810D707C4
:10097C009BEC9AE899400AED9BFDEC9AFCE899F8FF
:0E098C000FD5F0DAE4CDFBE4CCFAE4C8F92292
:00000001FF
