:100D7000696E7465727275707400736F6E6720317E
:080D800000736F6E6720320062
:03001300020C6C70
:100C6C00C0E0C0F0C083C082C0D075D000C000C04E
:100C7C0001C002C003C004C005C006C0077BFF7AD8
:100C8C000D79707D097C00120BD3D007D006D005EE
:100C9C00D004D003D002D001D000D0D0D082D083E9
:050CAC00D0F0D0E032A1
:100AC900E4F50FF510F5A4F591F584D2AFD2A8D2CB
:100AD900AA7BFF7A0D797A7D06FC120BD37BFF7A0C
:100AE9000D79817D067C00120BD3E50F70FCE510B2
:100AF90014601214601A240270F0AF10AE0F120CB9
:100B0900228E0F8F10AF10AE0F120DB38E0F8F10F4
:0D0B1900AF10AE0F120DB48E0F8F1080CDF7
:100D34005387BF75985053877FE4F5BA43A2407C2C
:100D44000324F0FD74FF3CFCE4F5BD8CBFAF05EF5C
:100D5400F5BE75BD035391FE439201439102539234
:0B0D6400FDC20053B8EF53B7EFD2AC54
:010D6F002261
:03002300020D8843
:0D0D8800309802C298309904C299C200321E
:080DA1002000FDD2008F992211
:030DB000AF9922D6
:10099A0002BA02BA02BA03A4057504DD0497041761
:1009AA000749057504DD049704170749057504DD31
:1009BA00049704DD041702BA02BA02BA03A4057541
:1009CA0004DD049704170749057504DD0497041725
:1009DA0007490575082D074906E0074903A403A43A
:1009EA0003A403A40404041818040404180C04043B
:1009FA0004180C0404041804040418180404041841
:100A0A000C040404180C0404040C0404040C02BAB4
:100A1A000417020B024B029302BA037002BA037064
:100A2A00031002BA029302BA037002BA03700310E7
:100A3A0002BA029302BA037002BA0370031002BA2E
:100A4A0003100370031003A40370031003DC02BA3B
:100A5A000370031003A40370031003DC02BA0370CB
:100A6A0003A4041704170417041704970526057529
:100A7A00052605750620041704970526057502BA8A
:100A8A0012120606060C060C060606060C060C06CC
:100A9A000606060C060606060606060606060C06E0
:100AAA000C060606060C06060606060606060606D0
:0F0ABA0006060612060606121203E80C2A390178
:100B7E00EF14601F146034240270497524FF75252C
:100B8E00097526EE900AC7E493F5277BFF7A09795B
:100B9E009A802E7524FF75250A75268A900AC7E459
:100BAE0093F5277BFF7A0A791880167524FF752531
:100BBE000A7526C5900AC8E493F5277BFF7A0A7951
:050BCE00C3120CF5222A
:060CF5008B218A228923F5
:100CFB00E4F528E528C39527502EAB21AA22A9237A
:100D0B0075F002E528A4F58285F083120894FFAEF6
:100D1B00F0AB24AA25A9268528827583001208002A
:080D2B00FD120B26052880CB08
:010D3300229D
:040B2600AB07AA0669
:100B2A00AF057E00AD03AC0212082D7C007D1212C7
:100B3A00083F8E138F14E4F9F87FB57EAF7D04FC6D
:100B4A00120CB1AD07AC06AF04AE055389F0438968
:100B5A0001E4FCFDC3ED9514EC951350168F8C8EB1
:100B6A008AD28C308DFDC28CC28DB2970DBD000128
:030B7A000C80E10B
:010B7D002255
:070DA9004D6F64652031006D
:0A0BD3008B138A1489158C168D17F8
:100BDD00E4F518F519D2AF120D34E4F518F519C373
:100BED00E5199517E5166480F8E518648098501D91
:100BFD00AB13AA14A915851982851883120800FF55
:100C0D00120DA10519E51970D6051880D2E4FF1251
:040C1D000DA1C2AFB4
:010C210022B0
:100C22008E118F12C2A67BFF7A0D79A97D067C00F8
:100C3200120BD330A22F30A0087D017FF47E0180F9
:100C4200143082087D017FA07E0F800930A10B7DC8
:100C5200017F107E27120B2680D930A2D60512E51D
:0A0C62001270020511AE11AF12224C
:010DB300221D
:010DB400221C
:03000000020D9559
:0C0D9500787FE4F6D8FD758128020AC9B9
:10080000BB010CE58229F582E5833AF583E02250AD
:1008100006E92582F8E622BBFE06E92582F8E222F7
:0D082000E58229F582E5833AF583E4932211
:10082D00EF8DF0A4A8F0CF8CF0A428CE8DF0A42EDF
:02083D00FE2299
:10083F00BC000BBE0029EF8DF084FFADF022E4CC9D
:10084F00F875F008EF2FFFEE33FEEC33FCEE9DEC66
:10085F00984005FCEE9DFE0FD5F0E9E4CEFD22EDAC
:10086F00F8F5F0EE8420D21CFEADF075F008EF2FF6
:10087F00FFED33FD4007985006D5F0F222C398FDE7
:05088F000FD5F0EA2284
:10089400BB0110E58229F582E5833AF583E0F5F0A2
:1008A400A3E0225009E92582F886F008E622BBFE7F
:1008B4000AE92582F8E2F5F008E222E5832AF583C5
:0808C400E993F5F0A3E993228A
:100CB100C2D5E830E70FB2D5E4C39BFBE49AFAE46E
:100CC10099F9E498F8EC30E717B2D5120CE712095C
:100CD10008E4C39BFBE49AFAE499F9E498F88003E9
:100CE10012090830D50DE4C39FFFE49EFEE49DFD8B
:040CF100E49CFC2261
:1008CC0075F008758200EF2FFFEE33FECD33CDCCE3
:1008DC0033CCC58233C5829BED9AEC99E582984066
:1008EC000CF582EE9BFEED9AFDEC99FC0FD5F0D643
:1008FC00E4CEFBE4CDFAE4CCF9A88222B800C1B96D
:10090C000059BA002DEC8BF084CFCECDFCE5F0CBAA
:10091C00F97818EF2FFFEE33FEED33FDEC33FCEBE3
:10092C0033FB10D703994004EB99FB0FD8E5E4F99E
:10093C00FA227818EF2FFFEE33FEED33FDEC33FC8B
:10094C00C933C910D7059BE99A4007EC9BFCE99A7F
:10095C00F90FD8E0E4C9FAE4CCFB2275F010EF2FC4
:10096C00FFEE33FEED33FDCC33CCC833C810D707C4
:10097C009BEC9AE899400AED9BFDEC9AFCE899F8FF
:0E098C000FD5F0DAE4CDFBE4CCFAE4C8F92292
:00000001FF
