:100DA000696E7465727275707400736F6E6720314E
:080DB00000736F6E6720320032
:03001300020CAF2D
:100CAF00C0E0C0F0C083C082C0D075D000C000C00B
:100CBF0001C002C003C004C005C006C0077BFF7A95
:100CCF000D79A07D097C00120B84D007D006D005CA
:100CDF00D004D003D002D001D000D0D0D082D083A6
:050CEF00D0F0D0E0325E
:100C1F00E4F50FF510F5A4F591F584D2AFD2A8D273
:100C2F00AA7BFF7A0D79AA7D06FC120B847BFF7AD3
:100C3F000D79B17D067C00120B84AF10AE0F120B35
:100C4F00D38E0F8F10120D748E0F8F10120DD98E31
:0A0C5F000F8F10E4F50FF51080E090
:100D38005387BF75985053877FE4F5BA43A2407C28
:100D48000324F0FD74FF3CFCE4F5BD8CBFAF05EF58
:100D5800F5BE75BD035391FE439201439102539230
:0B0D6800FDC20053B8EF53B7EFD2AC50
:010D7300225D
:03002300020DB813
:0D0DB800309802C298309904C299C20032EE
:080DD1002000FDD2008F9922E1
:030DE800AF99229E
:10099A0002BA02BA02BA03A4057504DD0497041761
:1009AA000749057504DD049704170749057504DD31
:1009BA00049704DD041702BA02BA02BA03A4057541
:1009CA0004DD049704170749057504DD0497041725
:1009DA0007490575082D074906E0074903A403A43A
:1009EA0003A403A40404041818040404180C04043B
:1009FA0004180C0404041804040418180404041841
:100A0A000C040404180C0404040C0404040C02BAB4
:100A1A000417020B024B029302BA037002BA037064
:100A2A00031002BA029302BA037002BA03700310E7
:100A3A0002BA029302BA037002BA0370031002BA2E
:100A4A0003100370031003A40370031003DC02BA3B
:100A5A000370031003A40370031003DC02BA0370CB
:100A6A0003A4041704170417041704970526057529
:100A7A00052605750620041704970526057502BA8A
:100A8A0012120606060C060C060606060C060C06CC
:100A9A000606060C060606060606060606060C06E0
:100AAA000C060606060C06060606060606060606D0
:0F0ABA0006060612060606121203E80C2A390178
:100B29007E01EF14601F1460342402704B7516FFA8
:100B39007517097518EE900AC7E493F5197BFF7AC2
:100B490009799A802E7516FF75170A75188A900A01
:100B5900C7E493F5197BFF7A0A791880167516FF91
:100B690075170A7518C5900AC8E493F5197BFF7AB9
:0A0B79000A79C3120C69AE07AF063B
:010B8300224F
:060C69008B138A148915AB
:100C6F00E4F51AE51AC395195033AB13AA14A91555
:100C7F0075F002E51AA4F58285F083120894FFAE91
:100C8F00F0AB16AA17A918851A82758300120800EF
:0F0C9F00FD120AC9EF7002FF22051A80C67F01FD
:010CAE002223
:040AC900AB07AA06C7
:100ACD00AF057E00AD03AC0212082D7C007D121225
:100ADD00083F8E1B8F1CE4F9F87FB57EAF7D04FCBB
:100AED00120CF4AD07AC06AF04AE055389F0438983
:100AFD0001E4FCFDC3ED951CEC951B501C8F8C8EF9
:100B0D008AD28C208D0620A2FA7F0022C28CC28D43
:0B0B1D00B2970DBD00010C80DB7F01D2
:010B280022AA
:070DE1004D6F646520310035
:0A0B84008B148A1589168C178D1842
:100B8E00E4F519F51AD2AF120D38E4F519F51AC3BA
:100B9E00E51A9518E5176480F8E519648098501DDC
:100BAE00AB14AA15A916851A82851983120800FF9F
:100BBE00120DD1051AE51A70D6051980D2E4FF126E
:040BCE000DD1C2AFD4
:010BD2002200
:040BD3008E118F12DE
:100BD700751301C2A67BFF7A0D79E17D067C0012B1
:100BE7000B84E5136401702630A0087D017FF47E35
:100BF7000180143082087D017FA07E0F800930A11B
:100C0700E17D017F107E27120AC98F1380D4E51278
:070C17002401FFE43511FE8A
:010C1E0022B3
:040D74008E118F123B
:100D78007F01EF6401701720A003FF800C2082041C
:100D88007F01800520A1EB7F02120B2980E4E51288
:070D98002401FFE43511FE08
:010D9F002231
:080DD900EF2401FFE43EFE22BD
:03000000020DC529
:0C0DC500787FE4F6D8FD758120020C1F39
:10080000BB010CE58229F582E5833AF583E02250AD
:1008100006E92582F8E622BBFE06E92582F8E222F7
:0D082000E58229F582E5833AF583E4932211
:10082D00EF8DF0A4A8F0CF8CF0A428CE8DF0A42EDF
:02083D00FE2299
:10083F00BC000BBE0029EF8DF084FFADF022E4CC9D
:10084F00F875F008EF2FFFEE33FEEC33FCEE9DEC66
:10085F00984005FCEE9DFE0FD5F0E9E4CEFD22EDAC
:10086F00F8F5F0EE8420D21CFEADF075F008EF2FF6
:10087F00FFED33FD4007985006D5F0F222C398FDE7
:05088F000FD5F0EA2284
:10089400BB0110E58229F582E5833AF583E0F5F0A2
:1008A400A3E0225009E92582F886F008E622BBFE7F
:1008B4000AE92582F8E2F5F008E222E5832AF583C5
:0808C400E993F5F0A3E993228A
:100CF400C2D5E830E70FB2D5E4C39BFBE49AFAE42B
:100D040099F9E498F8EC30E717B2D5120D2A1209D4
:100D140008E4C39BFBE49AFAE499F9E498F88003A5
:100D240012090830D50DE4C39FFFE49EFEE49DFD47
:040D3400E49CFC221D
:1008CC0075F008758200EF2FFFEE33FECD33CDCCE3
:1008DC0033CCC58233C5829BED9AEC99E582984066
:1008EC000CF582EE9BFEED9AFDEC99FC0FD5F0D643
:1008FC00E4CEFBE4CDFAE4CCF9A88222B800C1B96D
:10090C000059BA002DEC8BF084CFCECDFCE5F0CBAA
:10091C00F97818EF2FFFEE33FEED33FDEC33FCEBE3
:10092C0033FB10D703994004EB99FB0FD8E5E4F99E
:10093C00FA227818EF2FFFEE33FEED33FDEC33FC8B
:10094C00C933C910D7059BE99A4007EC9BFCE99A7F
:10095C00F90FD8E0E4C9FAE4CCFB2275F010EF2FC4
:10096C00FFEE33FEED33FDCC33CCC833C810D707C4
:10097C009BEC9AE899400AED9BFDEC9AFCE899F8FF
:0E098C000FD5F0DAE4CDFBE4CCFAE4C8F92292
:00000001FF
