:100E7700696E7465727275707400736F6E67203176
:080E870000736F6E672032005A
:03001300020D1DBE
:100D1D00C0E0C0F0C083C082C0D075D000C000C09C
:100D2D0001C002C003C004C005C006C0077BFF7A26
:100D3D000E79777D097C00120C85D007D006D00581
:100D4D00D004D003D002D001D000D0D0D082D08337
:050D5D00D0F0D0E032EF
:100C2A00E4F50FF510F5A4F591F584D2AFD2A8D268
:100C3A00AA7BFF7A0E79817D06FC120C857BFF7AEE
:100C4A000E79887D067C00120C85AF10AE0F120D4E
:100C5A00628E0F8F10120E5DAF10AE0F120E268E1F
:100C6A000F8F10120E5DAF10AE0F120EC38E0F8FC4
:0B0C7A0010120E5DE4F50FF51080CFA6
:100DEA005387BF75985053877FE4F5BA43A2407C76
:100DFA000324F0FD74FF3CFCE4F5BD8CBFAF05EFA6
:100E0A00F5BE75BD035391FE43920143910253927D
:0B0E1A00FDC20053B8EF53B7EFD2AC9D
:010E250022AA
:03002300020EA228
:0D0EA200309802C298309904C299C2003203
:080EBB002000FDD2008F9922F6
:030ECB00AF9922BA
:1009E90002BA02BA02BA03A4057504DD0497041712
:1009F9000749057504DD049704170749057504DDE2
:100A0900049704DD041702BA02BA02BA03A40575F1
:100A190004DD049704170749057504DD04970417D5
:100A290007490575082D074906E0074903A403A4EA
:100A390003A403A40404041818040404180C0404EB
:100A490004180C04040418040404181804040418F1
:100A59000C040404180C0404040C0404040C53745A
:100A69006172205761727302BA0417020B024B02BA
:100A79009302BA033E02BA033E031002BA0293027A
:100A8900BA033E02BA033E031002BA029302BA0342
:100A99003E02BA033E031002BA0310033E031003D9
:100AA900A4033E031003DC02BA033E031003A403AC
:100AB9003E031003DC02BA033E03A404170417041F
:100AC90017041704970526057505260575062004DC
:100AD9001704970526057502BA12120606060C06B2
:100AE9000C060606060C060C060606060C06060685
:100AF900060606060606060C060C060606060C067B
:100B09000606060606060606060606061206060670
:100B19001212536F726365726F722773204170707E
:100B290072656E7469636501F40C506F6B656D6F66
:040B39006E2A3901E6
:100B3D007E01EF14602C14604E240270727BFF7ADC
:100B4D000A79677D097C00120C857516FF75170AE9
:100B5D0075183D900B3AE493F5197BFF7A0979E905
:100B6D0080487BFF7A0B791B7D157C00120C8575F7
:100B7D0016FF75170A7518E2900B3BE493F5197B78
:100B8D00FF7A0A797080237BFF7A0B79337D077C9E
:100B9D0000120C857516FF75170B751832900B3CEE
:100BAD00E493F5197BFF7A0B7930120CD4AE07AFB5
:010BBD000631
:010BBE002214
:060CD4008B138A14891540
:100CDA00E4F51AE51AC395195036120E8FAB13AA0A
:100CEA0014A91575F002E51AA4F58285F083120895
:100CFA0094FFAEF0AB16AA17A918851A827583005D
:100D0A00120800FD120BBFEF7002FF22051A80C302
:020D1A007F0157
:010D1C0022B4
:040BBF00AB07AA06D0
:100BC300AF057E00AD03AC0212082D7C007D12122E
:100BD300083F8E1B8F1CE4F9F87FF17EEFFDFC12BA
:100BE3000DA6E47B1EFAF9F81208CCC3E49FFFE4D8
:100BF3009EAD07FFAE055389F0438901E4FCFDC3B5
:100C0300ED951CEC951B501C8F8C8E8AD28C208DFD
:100C13000620A2FA7F0022C28CC28DB2970DBD00BE
:060C2300010C80DB7F01E3
:010C290022A8
:100E8F005389F0438902E4F58CD28C308DFDC28CEE
:030E9F00C28D22DF
:0A0C85008B138A1489158C168D1745
:100C8F00E4F518F519D2AF120DEAE4F518F519C30A
:100C9F00E5199517E5166480F8E518648098501DDE
:100CAF00AB13AA14A915851982851883120800FFA2
:100CBF00120EBB0519E51970D6051880D2E4FF1284
:040CCF000EBBC2AFE7
:010CD30022FE
:040D62008E118F124D
:100D66007F01C2A6EF6401702B20A0087D017FF4ED
:100D76007E0180142082087D017FA07E0F800920DD
:100D8600A10B7D017F107E27120BBF80D720A2D436
:0F0D9600E4FF80D0D2A6E5122401FFE43511FE60
:010DA500222B
:040E26008E118F1288
:100E2A007F01C284EF6401701E20A003FF800C20A2
:100E3A0082047F01800520A1077F02120B3D80E416
:100E4A0020A2E1E4FF80DDD284E5122401FFE4352B
:020E5A0011FE87
:010E5C002273
:080EC300EF2401FFE43EFE22D2
:100E5D00E4FF5389F0438901F58CF58AD28C308DEE
:090E6D00FDC28CC28D0FBF0CF315
:010E76002259
:03000000020EAF3E
:0C0EAF00787FE4F6D8FD758120020C2A43
:10080000BB010CE58229F582E5833AF583E02250AD
:1008100006E92582F8E622BBFE06E92582F8E222F7
:0D082000E58229F582E5833AF583E4932211
:10082D00EF8DF0A4A8F0CF8CF0A428CE8DF0A42EDF
:02083D00FE2299
:10083F00BC000BBE0029EF8DF084FFADF022E4CC9D
:10084F00F875F008EF2FFFEE33FEEC33FCEE9DEC66
:10085F00984005FCEE9DFE0FD5F0E9E4CEFD22EDAC
:10086F00F8F5F0EE8420D21CFEADF075F008EF2FF6
:10087F00FFED33FD4007985006D5F0F222C398FDE7
:05088F000FD5F0EA2284
:10089400BB0110E58229F582E5833AF583E0F5F0A2
:1008A400A3E0225009E92582F886F008E622BBFE7F
:1008B4000AE92582F8E2F5F008E222E5832AF583C5
:0808C400E993F5F0A3E993228A
:1008CC00E88FF0A4CC8BF0A42CFCE98EF0A42CFCCB
:1008DC008AF0EDA42CFCEA8EF0A4CDA8F08BF0A449
:1008EC002DCC3825F0FDE98FF0A42CCD35F0FCEBA8
:1008FC008EF0A4FEA9F0EB8FF0A4CFC5F02ECD396D
:0F090C00FEE43CFCEAA42DCE35F0FDE43CFC22D9
:100DA600C2D5E830E70FB2D5E4C39BFBE49AFAE478
:100DB60099F9E498F8EC30E717B2D5120DDC120970
:100DC60057E4C39BFBE49AFAE499F9E498F88003A4
:100DD60012095730D50DE4C39FFFE49EFEE49DFD46
:040DE600E49CFC226B
:10091B0075F008758200EF2FFFEE33FECD33CDCC93
:10092B0033CCC58233C5829BED9AEC99E582984016
:10093B000CF582EE9BFEED9AFDEC99FC0FD5F0D6F3
:10094B00E4CEFBE4CDFAE4CCF9A88222B800C1B91D
:10095B000059BA002DEC8BF084CFCECDFCE5F0CB5B
:10096B00F97818EF2FFFEE33FEED33FDEC33FCEB94
:10097B0033FB10D703994004EB99FB0FD8E5E4F94F
:10098B00FA227818EF2FFFEE33FEED33FDEC33FC3C
:10099B00C933C910D7059BE99A4007EC9BFCE99A30
:1009AB00F90FD8E0E4C9FAE4CCFB2275F010EF2F75
:1009BB00FFEE33FEED33FDCC33CCC833C810D70775
:1009CB009BEC9AE899400AED9BFDEC9AFCE899F8B0
:0E09DB000FD5F0DAE4CDFBE4CCFAE4C8F92243
:00000001FF
