:100D8500696E7465727275707400736F6E67203169
:080D950000736F6E672032004D
:03001300020CC01C
:100CC000C0E0C0F0C083C082C0D075D000C000C0FA
:100CD00001C002C003C004C005C006C0077BFF7A84
:100CE0000D79857D097C00120BE1D007D006D00577
:100CF000D004D003D002D001D000D0D0D082D08395
:050D0000D0F0D0E0324C
:100B2900E4F50FF510F5A4F591F584D2AFD2A8D26A
:100B3900AA7BFF7A0D798F7D06FC120BE17BFF7A88
:100B49000D79967D067C00120BE1E50F70FCE5102E
:100B590014601214601A240270F0AF10AE0F120C58
:100B6900308E0F8F10AF10AE0F120DC88E0F8F1071
:0D0B7900AF10AE0F120DC98E0F8F1080CD82
:100D49005387BF75985053877FE4F5BA43A2407C17
:100D59000324F0FD74FF3CFCE4F5BD8CBFAF05EF47
:100D6900F5BE75BD035391FE43920143910253921F
:0B0D7900FDC20053B8EF53B7EFD2AC3F
:010D8400224C
:03002300020D9D2E
:0D0D9D00309802C298309904C299C2003209
:080DB6002000FDD2008F9922FC
:030DC500AF9922C1
:10099A0002BA02BA02BA03A4057504DD0497041761
:1009AA000749057504DD049704170749057504DD31
:1009BA00049704DD041702BA02BA02BA03A4057541
:1009CA0004DD049704170749057504DD0497041725
:1009DA0007490575082D074906E0074903A403A43A
:1009EA0003A403A40404041818040404180C04043B
:1009FA0004180C0404041804040418180404041841
:100A0A000C040404180C0404040C0404040C02BAB4
:100A1A000417020B024B029302BA037002BA037064
:100A2A00031002BA029302BA037002BA03700310E7
:100A3A0002BA029302BA037002BA0370031002BA2E
:100A4A0003100370031003A40370031003DC02BA3B
:100A5A000370031003A40370031003DC02BA0370CB
:100A6A0003A4041704170417041704970526057529
:100A7A00052605750620041704970526057502BA8A
:100A8A0012120606060C060C060606060C060C06CC
:100A9A000606060C060606060606060606060C06E0
:100AAA000C060606060C06060606060606060606D0
:0F0ABA0006060612060606121203E80C2A390178
:100B86007E01EF14601F1460342402704B7524FF3D
:100B96007525097526EE900AC7E493F5277BFF7A3B
:100BA60009799A802E7524FF75250A75268A900A7A
:100BB600C7E493F5277BFF7A0A791880167524FF18
:100BC60075250A7526C5900AC8E493F5277BFF7A32
:0A0BD6000A79C3120C7AAE07AF06CD
:010BE00022F2
:060C7A008B218A22892370
:100C8000E4F528E528C395275033AB21AA22A923F0
:100C900075F002E528A4F58285F083120894FFAE72
:100CA000F0AB24AA25A926852882758300120800A6
:0F0CB000FD120AC9EF7002FF22052880C67F01DE
:010CBF002212
:040AC900AB07AA06C7
:100ACD00AF057E00AD03AC0212082D7C007D121225
:100ADD00083F8E138F14E4F9F87FB57EAF7D04FCCB
:100AED00120D05AD07AC06AF04AE055389F0438971
:100AFD0001E4FCFDC3ED9514EC9513501C8F8C8E09
:100B0D008AD28C208D0620A2FA7F0022C28CC28D43
:0B0B1D00B2970DBD00010C80DB7F01D2
:010B280022AA
:070DBE004D6F646520310058
:0A0BE1008B138A1489158C168D17EA
:100BEB00E4F518F519D2AF120D49E4F518F519C350
:100BFB00E5199517E5166480F8E518648098501D83
:100C0B00AB13AA14A915851982851883120800FF46
:100C1B00120DB60519E51970D6051880D2E4FF122E
:040C2B000DB6C2AF91
:010C2F0022A2
:100C30008E118F12C2A67BFF7A0D79BE7D067C00D5
:100C4000120BE130A22F30A0087D017FF47E0180DD
:100C5000143082087D017FA07E0F800930A10B7DBA
:100C6000017F107E27120AC980D930A2D60512E56D
:0A0C70001270020511AE11AF12223E
:010DC8002208
:010DC9002207
:03000000020DAA44
:0C0DAA00787FE4F6D8FD758128020B2943
:10080000BB010CE58229F582E5833AF583E02250AD
:1008100006E92582F8E622BBFE06E92582F8E222F7
:0D082000E58229F582E5833AF583E4932211
:10082D00EF8DF0A4A8F0CF8CF0A428CE8DF0A42EDF
:02083D00FE2299
:10083F00BC000BBE0029EF8DF084FFADF022E4CC9D
:10084F00F875F008EF2FFFEE33FEEC33FCEE9DEC66
:10085F00984005FCEE9DFE0FD5F0E9E4CEFD22EDAC
:10086F00F8F5F0EE8420D21CFEADF075F008EF2FF6
:10087F00FFED33FD4007985006D5F0F222C398FDE7
:05088F000FD5F0EA2284
:10089400BB0110E58229F582E5833AF583E0F5F0A2
:1008A400A3E0225009E92582F886F008E622BBFE7F
:1008B4000AE92582F8E2F5F008E222E5832AF583C5
:0808C400E993F5F0A3E993228A
:100D0500C2D5E830E70FB2D5E4C39BFBE49AFAE419
:100D150099F9E498F8EC30E717B2D5120D3B1209B2
:100D250008E4C39BFBE49AFAE499F9E498F8800394
:100D350012090830D50DE4C39FFFE49EFEE49DFD36
:040D4500E49CFC220C
:1008CC0075F008758200EF2FFFEE33FECD33CDCCE3
:1008DC0033CCC58233C5829BED9AEC99E582984066
:1008EC000CF582EE9BFEED9AFDEC99FC0FD5F0D643
:1008FC00E4CEFBE4CDFAE4CCF9A88222B800C1B96D
:10090C000059BA002DEC8BF084CFCECDFCE5F0CBAA
:10091C00F97818EF2FFFEE33FEED33FDEC33FCEBE3
:10092C0033FB10D703994004EB99FB0FD8E5E4F99E
:10093C00FA227818EF2FFFEE33FEED33FDEC33FC8B
:10094C00C933C910D7059BE99A4007EC9BFCE99A7F
:10095C00F90FD8E0E4C9FAE4CCFB2275F010EF2FC4
:10096C00FFEE33FEED33FDCC33CCC833C810D707C4
:10097C009BEC9AE899400AED9BFDEC9AFCE899F8FF
:0E098C000FD5F0DAE4CDFBE4CCFAE4C8F92292
:00000001FF
