:100C4D00696E7465727275707400736F6E672031A2
:080C5D0000736F6E6720320086
:03001300020B1DC0
:100B1D00C0E0C0F0C083C082C0D075D000C000C09E
:100B2D0001C002C003C004C005C006C0077BFF7A28
:100B3D000C794D7D097C00120ACED007D006D00568
:100B4D00D004D003D002D001D000D0D0D082D08339
:050B5D00D0F0D0E032F1
:100C2100E4F50FF510F5A4F591F584D2AFD2A8D271
:100C3100AA7BFF7A0C79577D06FC120ACE7BFF7ADC
:0C0C41000C795E7D067C00120ACE80FE5D
:0A0ACE008B118A1289138C148D1508
:100AD800E4F516F517D2AF120BE5E4F516F517C3D2
:100AE800E5179515E5146480F8E516648098501D9F
:100AF800AB11AA12A913851782851683120800FF65
:100B0800120C7E0517E51770D6051680D2E4FF1281
:040B18000C7EC2AFDE
:010B1C0022B6
:100BE5005387BF75985053877FE4F5BA43A2407C7D
:100BF5000324F0FD74FF3CFCE4F5BD8CBFAF05EFAD
:100C0500F5BE75BD035391FE439201439102539284
:0B0C1500FDC20053B8EF53B7EFD2ACA4
:010C200022B1
:03002300020C6567
:0D0C6500309802C298309904C299C2003242
:080C7E002000FDD2008F992235
:030C8600AF992201
:10099A0002BA02BA02BA03A4057504DD0497041761
:1009AA000749057504DD049704170749057504DD31
:1009BA00049704DD041702BA02BA02BA03A4057541
:1009CA0004DD049704170749057504DD0497041725
:1009DA0007490575082D074906E0074903A403A43A
:1009EA0003A403A40404041818040404180C04043B
:1009FA0004180C0404041804040418180404041841
:100A0A000C040404180C0404040C0404040C03E885
:070A1A000C03E80C2A0101A6
:100A7900EF14601F14603424027049751BFF751C44
:100A890009751DEE900A1FE493F51E7BFF7A09791B
:100A99009A802E751BFF751C0A751D1A900A1FE492
:100AA90093F51E7BFF7A0A79188016751BFF751C52
:100AB9000A751D1D900A20E493F51E7BFF7A0A79B9
:050AC9001B120BA62228
:060BA6008B188A19891A60
:100BAC00E4F51FE51FC3951E502EAB18AA19A91A00
:100BBC0075F002E51FA4F58285F083120894FFAE50
:100BCC00F0AB1BAA1CA91D851F827583001208009F
:080BDC00FD120A21051F80CB68
:010BE40022EE
:040A2100AB07AA066F
:100A2500AF057E00AD03AC0212082D7C007D1212CD
:100A3500083F8E218F22E4F9F87FB57EAF7D04FC57
:100A4500120B62AD07AC06AF04AE055389F04389BE
:100A550001E4FCFDC3ED9522EC952150168F8C8E9B
:100A65008AD28C308DFDC28CC28DB2970DBD00012E
:030A75000C80E111
:010A7800225B
:03000000020C727D
:0C0C7200787FE4F6D8FD758122020C2189
:10080000BB010CE58229F582E5833AF583E02250AD
:1008100006E92582F8E622BBFE06E92582F8E222F7
:0D082000E58229F582E5833AF583E4932211
:10082D00EF8DF0A4A8F0CF8CF0A428CE8DF0A42EDF
:02083D00FE2299
:10083F00BC000BBE0029EF8DF084FFADF022E4CC9D
:10084F00F875F008EF2FFFEE33FEEC33FCEE9DEC66
:10085F00984005FCEE9DFE0FD5F0E9E4CEFD22EDAC
:10086F00F8F5F0EE8420D21CFEADF075F008EF2FF6
:10087F00FFED33FD4007985006D5F0F222C398FDE7
:05088F000FD5F0EA2284
:10089400BB0110E58229F582E5833AF583E0F5F0A2
:1008A400A3E0225009E92582F886F008E622BBFE7F
:1008B4000AE92582F8E2F5F008E222E5832AF583C5
:0808C400E993F5F0A3E993228A
:100B6200C2D5E830E70FB2D5E4C39BFBE49AFAE4BE
:100B720099F9E498F8EC30E717B2D5120B981209FC
:100B820008E4C39BFBE49AFAE499F9E498F8800339
:100B920012090830D50DE4C39FFFE49EFEE49DFDDB
:040BA200E49CFC22B1
:1008CC0075F008758200EF2FFFEE33FECD33CDCCE3
:1008DC0033CCC58233C5829BED9AEC99E582984066
:1008EC000CF582EE9BFEED9AFDEC99FC0FD5F0D643
:1008FC00E4CEFBE4CDFAE4CCF9A88222B800C1B96D
:10090C000059BA002DEC8BF084CFCECDFCE5F0CBAA
:10091C00F97818EF2FFFEE33FEED33FDEC33FCEBE3
:10092C0033FB10D703994004EB99FB0FD8E5E4F99E
:10093C00FA227818EF2FFFEE33FEED33FDEC33FC8B
:10094C00C933C910D7059BE99A4007EC9BFCE99A7F
:10095C00F90FD8E0E4C9FAE4CCFB2275F010EF2FC4
:10096C00FFEE33FEED33FDCC33CCC833C810D707C4
:10097C009BEC9AE899400AED9BFDEC9AFCE899F8FF
:0E098C000FD5F0DAE4CDFBE4CCFAE4C8F92292
:00000001FF
