:100DEF00696E7465727275707400736F6E672031FF
:080DFF0000736F6E67203200E3
:03001300020CFEDE
:100CFE00C0E0C0F0C083C082C0D075D000C000C0BC
:100D0E0001C002C003C004C005C006C0077BFF7A45
:100D1E000D79EF7D097C00120BD0D007D006D005DF
:100D2E00D004D003D002D001D000D0D0D082D08356
:050D3E00D0F0D0E0320E
:100C6B00E4F50FF510F5A4F591F584D2AFD2A8D227
:100C7B00AA7BFF7A0D79F97D06FC120BD07BFF7AEC
:100C8B000E79007D067C00120BD0AF10AE0F120C4C
:100C9B001F8E0F8F10120DC38E0F8F10120E348EEE
:0A0CAB000F8F10E4F50FF51080E044
:100D87005387BF75985053877FE4F5BA43A2407CD9
:100D97000324F0FD74FF3CFCE4F5BD8CBFAF05EF09
:100DA700F5BE75BD035391FE4392014391025392E1
:0B0DB700FDC20053B8EF53B7EFD2AC01
:010DC200220E
:03002300020E07C3
:0D0E0700309802C298309904C299C200329E
:080E2C002000FDD2008F992285
:030E4300AF992242
:10099A0002BA02BA02BA03A4057504DD0497041761
:1009AA000749057504DD049704170749057504DD31
:1009BA00049704DD041702BA02BA02BA03A4057541
:1009CA0004DD049704170749057504DD0497041725
:1009DA0007490575082D074906E0074903A403A43A
:1009EA0003A403A40404041818040404180C04043B
:1009FA0004180C0404041804040418180404041841
:100A0A000C040404180C0404040C0404040C5374A9
:100A1A006172205761727302BA0417020B024B0209
:100A2A009302BA037002BA0370031002BA02930265
:100A3A00BA037002BA0370031002BA029302BA032D
:100A4A007002BA0370031002BA0310037003100392
:100A5A00A40370031003DC02BA0370031003A40397
:100A6A0070031003DC02BA037003A404170417040A
:100A7A00170417049705260575052605750620042B
:100A8A001704970526057502BA12120606060C0601
:100A9A000C060606060C060C060606060C060606D4
:100AAA00060606060606060C060C060606060C06CA
:100ABA0006060606060606060606060612060606C0
:100ACA001212536F726365726F72277320417070CE
:100ADA0072656E7469636503E80C506F6B656D6FC0
:040AEA006E2A390136
:100AEE007E01EF14602C14604E240270727BFF7A2C
:100AFE000A79187D097C00120BD07516FF7517093F
:100B0E007518EE900AECE493F5197BFF7A09799A41
:100B1E0080487BFF7A0A79CC7D157C00120BD0754C
:100B2E0016FF75170A751893900AECE493F5197B66
:100B3E00FF7A0A792180237BFF7A0A79E47D077C8C
:100B4E0000120BD07516FF75170A7518E3900AED93
:100B5E00E493F5197BFF7A0A79E1120CB5AE07AF73
:010B6E000680
:010B6F002263
:060CB5008B138A1489155F
:100CBB00E4F51AE51AC395195036120E14AB13AAA4
:100CCB0014A91575F002E51AA4F58285F0831208B4
:100CDB0094FFAEF0AB16AA17A918851A827583007C
:100CEB00120800FD120B70EF7002FF22051A80C371
:020CFB007F0177
:010CFD0022D4
:040B7000AB07AA061F
:100B7400AF057E00AD03AC0212082D7C007D12127D
:100B8400083F8E1B8F1CE4F9F87FB57EAF7D04FC13
:100B9400120D43AD07AC06AF04AE055389F043898B
:100BA40001E4FCFDC3ED951CEC951B501C8F8C8E51
:100BB4008AD28C208D0620A2FA7F0022C28CC28D9C
:0B0BC400B2970DBD00010C80DB7F012B
:010BCF002203
:0C0E14005389F0438902E4F58CD28C2253
:070E3C004D6F6465203100D9
:0A0BD0008B148A1589168C178D18F6
:100BDA00E4F519F51AD2AF120D87E4F519F51AC31F
:100BEA00E51A9518E5176480F8E519648098501D90
:100BFA00AB14AA15A916851A82851983120800FF53
:100C0A00120E2C051AE51A70D6051980D2E4FF12C5
:040C1A000E2CC2AF2B
:010C1E0022B3
:040C1F008E118F1291
:100C2300751301C2A67BFF7A0E793C7D067C001208
:100C33000BD0E5136401702630A0087D017FF47E9C
:100C43000180143082087D017FA07E0F800930A1CE
:100C5300E17D017F107E27120B708F1380D4E51284
:070C63002401FFE43511FE3E
:010C6A002267
:040DC3008E118F12EC
:100DC7007F01EF6401701720A003FF800C208204CD
:100DD7007F01800520A1EB7F02120AEE80E4E51275
:070DE7002401FFE43511FEB9
:010DEE0022E2
:080E3400EF2401FFE43EFE2261
:03000000020E20CD
:0C0E2000787FE4F6D8FD758120020C6B91
:10080000BB010CE58229F582E5833AF583E02250AD
:1008100006E92582F8E622BBFE06E92582F8E222F7
:0D082000E58229F582E5833AF583E4932211
:10082D00EF8DF0A4A8F0CF8CF0A428CE8DF0A42EDF
:02083D00FE2299
:10083F00BC000BBE0029EF8DF084FFADF022E4CC9D
:10084F00F875F008EF2FFFEE33FEEC33FCEE9DEC66
:10085F00984005FCEE9DFE0FD5F0E9E4CEFD22EDAC
:10086F00F8F5F0EE8420D21CFEADF075F008EF2FF6
:10087F00FFED33FD4007985006D5F0F222C398FDE7
:05088F000FD5F0EA2284
:10089400BB0110E58229F582E5833AF583E0F5F0A2
:1008A400A3E0225009E92582F886F008E622BBFE7F
:1008B4000AE92582F8E2F5F008E222E5832AF583C5
:0808C400E993F5F0A3E993228A
:100D4300C2D5E830E70FB2D5E4C39BFBE49AFAE4DB
:100D530099F9E498F8EC30E717B2D5120D79120936
:100D630008E4C39BFBE49AFAE499F9E498F8800356
:100D730012090830D50DE4C39FFFE49EFEE49DFDF8
:040D8300E49CFC22CE
:1008CC0075F008758200EF2FFFEE33FECD33CDCCE3
:1008DC0033CCC58233C5829BED9AEC99E582984066
:1008EC000CF582EE9BFEED9AFDEC99FC0FD5F0D643
:1008FC00E4CEFBE4CDFAE4CCF9A88222B800C1B96D
:10090C000059BA002DEC8BF084CFCECDFCE5F0CBAA
:10091C00F97818EF2FFFEE33FEED33FDEC33FCEBE3
:10092C0033FB10D703994004EB99FB0FD8E5E4F99E
:10093C00FA227818EF2FFFEE33FEED33FDEC33FC8B
:10094C00C933C910D7059BE99A4007EC9BFCE99A7F
:10095C00F90FD8E0E4C9FAE4CCFB2275F010EF2FC4
:10096C00FFEE33FEED33FDCC33CCC833C810D707C4
:10097C009BEC9AE899400AED9BFDEC9AFCE899F8FF
:0E098C000FD5F0DAE4CDFBE4CCFAE4C8F92292
:00000001FF
